{"abi":[{"type":"function","name":"game_registry","inputs":[{"name":"","type":"uint256","internalType":"uint256"}],"outputs":[{"name":"game_id","type":"uint256","internalType":"uint256"}],"stateMutability":"view"},{"type":"function","name":"getGameData","inputs":[{"name":"game_id","type":"uint256","internalType":"uint256"}],"outputs":[{"name":"g","type":"tuple","internalType":"struct TournamentScores.game","components":[{"name":"user_ids","type":"uint256[8]","internalType":"uint256[8]"},{"name":"user_wallets","type":"address[8]","internalType":"address[8]"},{"name":"user_scores","type":"uint256[8]","internalType":"uint256[8]"},{"name":"winner_ids","type":"uint256[8]","internalType":"uint256[8]"},{"name":"game_id","type":"uint256","internalType":"uint256"}]}],"stateMutability":"view"},{"type":"function","name":"getTournamentData","inputs":[{"name":"tournamentIndex","type":"uint256","internalType":"uint256"}],"outputs":[{"name":"","type":"uint256[8]","internalType":"uint256[8]"},{"name":"","type":"uint256[8]","internalType":"uint256[8]"},{"name":"","type":"uint256[8]","internalType":"uint256[8]"},{"name":"","type":"string","internalType":"string"},{"name":"","type":"uint256","internalType":"uint256"}],"stateMutability":"view"},{"type":"function","name":"saveGameData","inputs":[{"name":"_user_ids","type":"uint256[8]","internalType":"uint256[8]"},{"name":"_user_wallets","type":"address[8]","internalType":"address[8]"},{"name":"_user_scores","type":"uint256[8]","internalType":"uint256[8]"}],"outputs":[{"name":"match_id","type":"uint256","internalType":"uint256"}],"stateMutability":"nonpayable"},{"type":"function","name":"saveTournamentData","inputs":[{"name":"_NofPlayers","type":"uint256","internalType":"uint256"},{"name":"_user_ids","type":"uint256[8]","internalType":"uint256[8]"},{"name":"_user_scores","type":"uint256[8]","internalType":"uint256[8]"},{"name":"_winner_ids","type":"uint256[8]","internalType":"uint256[8]"},{"name":"_winner_names","type":"string","internalType":"string"},{"name":"_tournament_id","type":"uint256","internalType":"uint256"}],"outputs":[],"stateMutability":"nonpayable"},{"type":"function","name":"tournament_registry","inputs":[{"name":"","type":"uint256","internalType":"uint256"}],"outputs":[{"name":"winner_names","type":"string","internalType":"string"},{"name":"tournament_id","type":"uint256","internalType":"uint256"}],"stateMutability":"view"},{"type":"event","name":"gameDataSaved","inputs":[{"name":"msg","type":"string","indexed":false,"internalType":"string"},{"name":"match_id","type":"uint256","indexed":false,"internalType":"uint256"}],"anonymous":false},{"type":"event","name":"tournamentDataSaved","inputs":[{"name":"msg","type":"string","indexed":false,"internalType":"string"},{"name":"tournament_id","type":"uint256","indexed":false,"internalType":"uint256"}],"anonymous":false},{"type":"error","name":"indexOutOfBounds","inputs":[{"name":"msg","type":"string","internalType":"string"},{"name":"passedIndex","type":"uint256","internalType":"uint256"}]},{"type":"error","name":"numberToHigh","inputs":[{"name":"msg","type":"string","internalType":"string"},{"name":"NofPlayers","type":"uint256","internalType":"uint256"}]}],"bytecode":{"object":"0x6080604052348015600e575f80fd5b50611f1f8061001c5f395ff3fe608060405234801561000f575f80fd5b5060043610610060575f3560e01c80630e87291d146100645780631607fdc614610094578063b6a65665146100b0578063c22586e0146100e0578063d134561f14610111578063dab6a21214610141575b5f80fd5b61007e600480360381019061007991906111b7565b610175565b60405161008b9190611219565b60405180910390f35b6100ae60048036038101906100a991906112e2565b6103ac565b005b6100ca60048036038101906100c5919061138c565b610507565b6040516100d7919061156c565b60405180910390f35b6100fa60048036038101906100f5919061138c565b610729565b604051610108929190611600565b60405180910390f35b61012b6004803603810190610126919061138c565b6107cf565b6040516101389190611219565b60405180910390f35b61015b6004803603810190610156919061138c565b6107ea565b60405161016c95949392919061168e565b60405180910390f35b5f60088011156101bd5760086040517fded37ee10000000000000000000000000000000000000000000000000000000081526004016101b49190611735565b60405180910390fd5b6008801415806101ce575060088014155b156102115760086040517f2b8d4f8700000000000000000000000000000000000000000000000000000000815260040161020891906117ab565b60405180910390fd5b5f61021c8386610a79565b905060045491506040518060a00160405280868152602001858152602001848152602001825f60088110610253576102526117d7565b5b602002015181526020018381525060025f8481526020019081526020015f205f820151815f01906008610287929190610d56565b5060208201518160080190600861029f929190610d96565b506040820151816010019060086102b7929190610d56565b506060820151816018019060086102cf929190610d56565b50608082015181602001559050505f5b6008811015610355575f8682600881106102fc576102fb6117d7565b5b602002015190505f81036103105750610355565b60035f8281526020019081526020015f20600454908060018154018082558091505060019003905f5260205f20015f90919091909150555080806001019150506102df565b5060045f81548092919061036890611831565b91905055507fc89ef53193e3044258c5fd0eeaa1657d55fc9ae2132bce161d18b6c2ecef51388260405161039c91906118c2565b60405180910390a1509392505050565b60088611156103f257856040517fded37ee10000000000000000000000000000000000000000000000000000000081526004016103e99190611735565b60405180910390fd5b5f805f8381526020019081526020015f2090505f5b8781101561048157868160088110610422576104216117d7565b5b6020020151825f01826008811061043c5761043b6117d7565b5b0181905550858160088110610454576104536117d7565b5b602002015182601001826008811061046f5761046e6117d7565b5b01819055508080600101915050610407565b508381601801906008610495929190610d56565b50828160200190816104a79190611ae8565b5081816021018190555060015f8154809291906104c390611831565b91905055507e043c2c45372a964965db737a3841a34852afc6dec81bcf4111a0c49ef98ec3826040516104f69190611c4d565b60405180910390a150505050505050565b61050f610e12565b6004548210610557576004546040517f2b8d4f8700000000000000000000000000000000000000000000000000000000815260040161054e9190611ce9565b60405180910390fd5b5f60025f8481526020019081526020015f2060200154146106e75760025f8381526020019081526020015f206040518060a00160405290815f82016008806020026040519081016040528092919082600880156105c9576020028201915b8154815260200190600101908083116105b5575b5050505050815260200160088201600880602002604051908101604052809291908260088015610643576020028201915b815f9054906101000a900473ffffffffffffffffffffffffffffffffffffffff1673ffffffffffffffffffffffffffffffffffffffff16815260200190600101908083116105fa575b5050505050815260200160108201600880602002604051908101604052809291908260088015610688576020028201915b815481526020019060010190808311610674575b50505050508152602001601882016008806020026040519081016040528092919082600880156106cd576020028201915b8154815260200190600101908083116106b9575b505050505081526020016020820154815250509050610724565b816040517f2b8d4f8700000000000000000000000000000000000000000000000000000000815260040161071b9190611d85565b60405180910390fd5b919050565b5f602052805f5260405f205f915090508060200180546107489061191b565b80601f01602080910402602001604051908101604052809291908181526020018280546107749061191b565b80156107bf5780601f10610796576101008083540402835291602001916107bf565b820191905f5260205f20905b8154815290600101906020018083116107a257829003601f168201915b5050505050908060210154905082565b6002602052805f5260405f205f915090508060200154905081565b6107f2610e58565b6107fa610e58565b610802610e58565b60605f600154861061084d576001546040517f2b8d4f870000000000000000000000000000000000000000000000000000000081526004016108449190611e21565b60405180910390fd5b5f805f8881526020019081526020015f206040518060c00160405290815f82016008806020026040519081016040528092919082600880156108a4576020028201915b815481526020019060010190808311610890575b505050505081526020016008820160088060200260405190810160405280929190826008801561091e576020028201915b815f9054906101000a900473ffffffffffffffffffffffffffffffffffffffff1673ffffffffffffffffffffffffffffffffffffffff16815260200190600101908083116108d5575b5050505050815260200160108201600880602002604051908101604052809291908260088015610963576020028201915b81548152602001906001019080831161094f575b50505050508152602001601882016008806020026040519081016040528092919082600880156109a8576020028201915b815481526020019060010190808311610994575b505050505081526020016020820180546109c19061191b565b80601f01602080910402602001604051908101604052809291908181526020018280546109ed9061191b565b8015610a385780601f10610a0f57610100808354040283529160200191610a38565b820191905f5260205f20905b815481529060010190602001808311610a1b57829003601f168201915b505050505081526020016021820154815250509050805f01518160400151826060015183608001518460a00151955095509550955095505091939590929450565b610a81610e7b565b610a89610ea9565b5f5b60088167ffffffffffffffff161015610b2d576040518060400160405280868367ffffffffffffffff1660088110610ac657610ac56117d7565b5b60200201518152602001858367ffffffffffffffff1660088110610aed57610aec6117d7565b5b6020020151815250828267ffffffffffffffff1660088110610b1257610b116117d7565b5b60200201819052508080610b2590611e60565b915050610a8b565b505f5b6008811015610c12575f828260088110610b4d57610b4c6117d7565b5b602002015190505f8290505b5f81118015610b905750815f015184600183610b759190611e8f565b60088110610b8657610b856117d7565b5b60200201515f0151105b15610be75783600182610ba39190611e8f565b60088110610bb457610bb36117d7565b5b6020020151848260088110610bcc57610bcb6117d7565b5b60200201819052508080610bdf90611ec2565b915050610b59565b81848260088110610bfb57610bfa6117d7565b5b602002018190525050508080600101915050610b30565b505f805f5b6008811015610d4c575f811480610c6d575083600182610c379190611e8f565b60088110610c4857610c476117d7565b5b60200201515f0151848260088110610c6357610c626117d7565b5b60200201515f0151145b15610cd257838160088110610c8557610c846117d7565b5b602002015160200151858460088110610ca157610ca06117d7565b5b60200201518380610cb190611831565b945060088110610cc457610cc36117d7565b5b602002018181525050610d3f565b5f91508280610ce090611831565b935050838160088110610cf657610cf56117d7565b5b602002015160200151858460088110610d1257610d116117d7565b5b60200201518380610d2290611831565b945060088110610d3557610d346117d7565b5b6020020181815250505b8080600101915050610c17565b5050505092915050565b8260088101928215610d85579160200282015b82811115610d84578251825591602001919060010190610d69565b5b509050610d929190610ed7565b5090565b8260088101928215610e01579160200282015b82811115610e00578251825f6101000a81548173ffffffffffffffffffffffffffffffffffffffff021916908373ffffffffffffffffffffffffffffffffffffffff16021790555091602001919060010190610da9565b5b509050610e0e9190610ed7565b5090565b6040518060a00160405280610e25610e58565b8152602001610e32610ef2565b8152602001610e3f610e58565b8152602001610e4c610e58565b81526020015f81525090565b604051806101000160405280600890602082028036833780820191505090505090565b6040518061010001604052806008905b610e93610e58565b815260200190600190039081610e8b5790505090565b6040518061010001604052806008905b610ec1610f15565b815260200190600190039081610eb95790505090565b5b80821115610eee575f815f905550600101610ed8565b5090565b604051806101000160405280600890602082028036833780820191505090505090565b60405180604001604052805f81526020015f81525090565b5f604051905090565b5f80fd5b5f80fd5b5f80fd5b5f601f19601f8301169050919050565b7f4e487b71000000000000000000000000000000000000000000000000000000005f52604160045260245ffd5b610f8882610f42565b810181811067ffffffffffffffff82111715610fa757610fa6610f52565b5b80604052505050565b5f610fb9610f2d565b9050610fc58282610f7f565b919050565b5f67ffffffffffffffff821115610fe457610fe3610f52565b5b602082029050919050565b5f80fd5b5f819050919050565b61100581610ff3565b811461100f575f80fd5b50565b5f8135905061102081610ffc565b92915050565b5f61103861103384610fca565b610fb0565b9050806020840283018581111561105257611051610fef565b5b835b8181101561107b57806110678882611012565b845260208401935050602081019050611054565b5050509392505050565b5f82601f83011261109957611098610f3e565b5b60086110a6848285611026565b91505092915050565b5f67ffffffffffffffff8211156110c9576110c8610f52565b5b602082029050919050565b5f73ffffffffffffffffffffffffffffffffffffffff82169050919050565b5f6110fd826110d4565b9050919050565b61110d816110f3565b8114611117575f80fd5b50565b5f8135905061112881611104565b92915050565b5f61114061113b846110af565b610fb0565b9050806020840283018581111561115a57611159610fef565b5b835b81811015611183578061116f888261111a565b84526020840193505060208101905061115c565b5050509392505050565b5f82601f8301126111a1576111a0610f3e565b5b60086111ae84828561112e565b91505092915050565b5f805f61030084860312156111cf576111ce610f36565b5b5f6111dc86828701611085565b9350506101006111ee8682870161118d565b92505061020061120086828701611085565b9150509250925092565b61121381610ff3565b82525050565b5f60208201905061122c5f83018461120a565b92915050565b5f80fd5b5f67ffffffffffffffff8211156112505761124f610f52565b5b61125982610f42565b9050602081019050919050565b828183375f83830152505050565b5f61128661128184611236565b610fb0565b9050828152602081018484840111156112a2576112a1611232565b5b6112ad848285611266565b509392505050565b5f82601f8301126112c9576112c8610f3e565b5b81356112d9848260208601611274565b91505092915050565b5f805f805f8061036087890312156112fd576112fc610f36565b5b5f61130a89828a01611012565b965050602061131b89828a01611085565b95505061012061132d89828a01611085565b94505061022061133f89828a01611085565b93505061032087013567ffffffffffffffff81111561136157611360610f3a565b5b61136d89828a016112b5565b92505061034061137f89828a01611012565b9150509295509295509295565b5f602082840312156113a1576113a0610f36565b5b5f6113ae84828501611012565b91505092915050565b5f60089050919050565b5f81905092915050565b5f819050919050565b6113dd81610ff3565b82525050565b5f6113ee83836113d4565b60208301905092915050565b5f602082019050919050565b61140f816113b7565b61141981846113c1565b9250611424826113cb565b805f5b8381101561145457815161143b87826113e3565b9650611446836113fa565b925050600181019050611427565b505050505050565b5f60089050919050565b5f81905092915050565b5f819050919050565b611482816110f3565b82525050565b5f6114938383611479565b60208301905092915050565b5f602082019050919050565b6114b48161145c565b6114be8184611466565b92506114c982611470565b805f5b838110156114f95781516114e08782611488565b96506114eb8361149f565b9250506001810190506114cc565b505050505050565b61042082015f8201516115165f850182611406565b50602082015161152a6101008501826114ab565b50604082015161153e610200850182611406565b506060820151611552610300850182611406565b5060808201516115666104008501826113d4565b50505050565b5f610420820190506115805f830184611501565b92915050565b5f81519050919050565b5f82825260208201905092915050565b5f5b838110156115bd5780820151818401526020810190506115a2565b5f8484015250505050565b5f6115d282611586565b6115dc8185611590565b93506115ec8185602086016115a0565b6115f581610f42565b840191505092915050565b5f6040820190508181035f83015261161881856115c8565b9050611627602083018461120a565b9392505050565b5f81905092915050565b611641816113b7565b61164b818461162e565b9250611656826113cb565b805f5b8381101561168657815161166d87826113e3565b9650611678836113fa565b925050600181019050611659565b505050505050565b5f610340820190506116a25f830188611638565b6116b0610100830187611638565b6116be610200830186611638565b8181036103008301526116d181856115c8565b90506116e161032083018461120a565b9695505050505050565b7f546f6f206d616e7920706c6179657273000000000000000000000000000000005f82015250565b5f61171f601083611590565b915061172a826116eb565b602082019050919050565b5f6040820190508181035f83015261174c81611713565b905061175b602083018461120a565b92915050565b7f4172726179206c656e677468206d69736d6174636800000000000000000000005f82015250565b5f611795601583611590565b91506117a082611761565b602082019050919050565b5f6040820190508181035f8301526117c281611789565b90506117d1602083018461120a565b92915050565b7f4e487b71000000000000000000000000000000000000000000000000000000005f52603260045260245ffd5b7f4e487b71000000000000000000000000000000000000000000000000000000005f52601160045260245ffd5b5f61183b82610ff3565b91507fffffffffffffffffffffffffffffffffffffffffffffffffffffffffffffffff820361186d5761186c611804565b5b600182019050919050565b7f47616d652064617461207361766564207375636365737366756c6c79000000005f82015250565b5f6118ac601c83611590565b91506118b782611878565b602082019050919050565b5f6040820190508181035f8301526118d9816118a0565b90506118e8602083018461120a565b92915050565b7f4e487b71000000000000000000000000000000000000000000000000000000005f52602260045260245ffd5b5f600282049050600182168061193257607f821691505b602082108103611945576119446118ee565b5b50919050565b5f819050815f5260205f209050919050565b5f6020601f8301049050919050565b5f82821b905092915050565b5f600883026119a77fffffffffffffffffffffffffffffffffffffffffffffffffffffffffffffffff8261196c565b6119b1868361196c565b95508019841693508086168417925050509392505050565b5f819050919050565b5f6119ec6119e76119e284610ff3565b6119c9565b610ff3565b9050919050565b5f819050919050565b611a05836119d2565b611a19611a11826119f3565b848454611978565b825550505050565b5f90565b611a2d611a21565b611a388184846119fc565b505050565b5b81811015611a5b57611a505f82611a25565b600181019050611a3e565b5050565b601f821115611aa057611a718161194b565b611a7a8461195d565b81016020851015611a89578190505b611a9d611a958561195d565b830182611a3d565b50505b505050565b5f82821c905092915050565b5f611ac05f1984600802611aa5565b1980831691505092915050565b5f611ad88383611ab1565b9150826002028217905092915050565b611af182611586565b67ffffffffffffffff811115611b0a57611b09610f52565b5b611b14825461191b565b611b1f828285611a5f565b5f60209050601f831160018114611b50575f8415611b3e578287015190505b611b488582611acd565b865550611baf565b601f198416611b5e8661194b565b5f5b82811015611b8557848901518255600182019150602085019450602081019050611b60565b86831015611ba25784890151611b9e601f891682611ab1565b8355505b6001600288020188555050505b505050505050565b7f616c6c206e656363657361727279206461746120666f72206120746f75726e615f8201527f6d656e7420686173206265656e2073617665642e20746f75726e616d656e742060208201527f69643a2000000000000000000000000000000000000000000000000000000000604082015250565b5f611c37604483611590565b9150611c4282611bb7565b606082019050919050565b5f6040820190508181035f830152611c6481611c2b565b9050611c73602083018461120a565b92915050565b7f696e646578206f662067616d652f6d61746368206973206f7574206f6620626f5f8201527f756e64732e204d617820696e6465783a20000000000000000000000000000000602082015250565b5f611cd3603183611590565b9150611cde82611c79565b604082019050919050565b5f6040820190508181035f830152611d0081611cc7565b9050611d0f602083018461120a565b92915050565b7f47616d65206461746120646f6573206e6f7420657869737420666f72207468695f8201527f7320696400000000000000000000000000000000000000000000000000000000602082015250565b5f611d6f602483611590565b9150611d7a82611d15565b604082019050919050565b5f6040820190508181035f830152611d9c81611d63565b9050611dab602083018461120a565b92915050565b7f696e646578206f66207475726e616d656e74206973206f7574206f6620626f755f8201527f6e64732e204d617820696e6465783a2000000000000000000000000000000000602082015250565b5f611e0b603083611590565b9150611e1682611db1565b604082019050919050565b5f6040820190508181035f830152611e3881611dff565b9050611e47602083018461120a565b92915050565b5f67ffffffffffffffff82169050919050565b5f611e6a82611e4d565b915067ffffffffffffffff8203611e8457611e83611804565b5b600182019050919050565b5f611e9982610ff3565b9150611ea483610ff3565b9250828203905081811115611ebc57611ebb611804565b5b92915050565b5f611ecc82610ff3565b91505f8203611ede57611edd611804565b5b60018203905091905056fea2646970667358221220d2257104d625c77a35cbe5aaac83857f70d15c02ce9cff88610e8ff5c72f3d8364736f6c63430008190033","linkReferences":{}},"methodIdentifiers":{"game_registry(uint256)":"d134561f","getGameData(uint256)":"b6a65665","getTournamentData(uint256)":"dab6a212","saveGameData(uint256[8],address[8],uint256[8])":"0e87291d","saveTournamentData(uint256,uint256[8],uint256[8],uint256[8],string,uint256)":"1607fdc6","tournament_registry(uint256)":"c22586e0"},"id":2}