{"abi":[{"type":"constructor","inputs":[{"name":"_tourmentScoresAddress","type":"address","internalType":"address"}],"stateMutability":"nonpayable"},{"type":"function","name":"checkTime","inputs":[{"name":"tournament_id","type":"uint256","internalType":"uint256"}],"outputs":[{"name":"timeRemaining","type":"uint256","internalType":"uint256"}],"stateMutability":"view"},{"type":"function","name":"checkTournamentStatus","inputs":[{"name":"tournament_id","type":"uint256","internalType":"uint256"}],"outputs":[{"name":"canStart","type":"bool","internalType":"bool"}],"stateMutability":"view"},{"type":"function","name":"getPayableTournamentData","inputs":[{"name":"tournament_id","type":"uint256","internalType":"uint256"}],"outputs":[{"name":"t","type":"tuple","internalType":"struct Staking.payableTournament","components":[{"name":"NofPlayers","type":"uint256","internalType":"uint256"},{"name":"user_ids","type":"uint256[8]","internalType":"uint256[8]"},{"name":"min_stake","type":"uint256","internalType":"uint256"},{"name":"stake_goal","type":"uint256","internalType":"uint256"},{"name":"is_finished","type":"bool","internalType":"bool"},{"name":"has_started","type":"bool","internalType":"bool"},{"name":"is_reimbursed","type":"bool","internalType":"bool"},{"name":"created_at","type":"uint256","internalType":"uint256"}]}],"stateMutability":"view"},{"type":"function","name":"getUserbyId","inputs":[{"name":"user_id","type":"uint256","internalType":"uint256"}],"outputs":[{"name":"u","type":"tuple","internalType":"struct Staking.user","components":[{"name":"user_id","type":"uint256","internalType":"uint256"},{"name":"username","type":"string","internalType":"string"},{"name":"user_wallet","type":"address","internalType":"address"}]}],"stateMutability":"view"},{"type":"function","name":"hasAllPlayers","inputs":[{"name":"tournament_id","type":"uint256","internalType":"uint256"}],"outputs":[{"name":"hasAll","type":"bool","internalType":"bool"}],"stateMutability":"view"},{"type":"function","name":"isGoalReached","inputs":[{"name":"tournament_id","type":"uint256","internalType":"uint256"}],"outputs":[{"name":"isReached","type":"bool","internalType":"bool"}],"stateMutability":"view"},{"type":"function","name":"isTournamentFinished","inputs":[{"name":"tournament_id","type":"uint256","internalType":"uint256"}],"outputs":[{"name":"isFinished","type":"bool","internalType":"bool"}],"stateMutability":"view"},{"type":"function","name":"owner","inputs":[],"outputs":[{"name":"","type":"address","internalType":"address"}],"stateMutability":"view"},{"type":"function","name":"reimburseIfFailedStart","inputs":[{"name":"tournament_id","type":"uint256","internalType":"uint256"},{"name":"user_id","type":"uint256","internalType":"uint256"}],"outputs":[],"stateMutability":"nonpayable"},{"type":"function","name":"reimbursePlayer","inputs":[{"name":"tournament_id","type":"uint256","internalType":"uint256"},{"name":"user_id","type":"uint256","internalType":"uint256"}],"outputs":[],"stateMutability":"nonpayable"},{"type":"function","name":"saveResultsAndTransferToken","inputs":[{"name":"user_scores","type":"uint256[8]","internalType":"uint256[8]"},{"name":"user_ids","type":"uint256[8]","internalType":"uint256[8]"},{"name":"tournament_id","type":"uint256","internalType":"uint256"}],"outputs":[],"stateMutability":"nonpayable"},{"type":"function","name":"stake","inputs":[{"name":"tournament_id","type":"uint256","internalType":"uint256"},{"name":"_user_id","type":"uint256","internalType":"uint256"},{"name":"_username","type":"string","internalType":"string"},{"name":"_user_wallet","type":"address","internalType":"address"}],"outputs":[{"name":"currPlayerIdx","type":"uint256","internalType":"uint256"}],"stateMutability":"payable"},{"type":"function","name":"startPayableTournament","inputs":[{"name":"_NofPlayers","type":"uint256","internalType":"uint256"},{"name":"_user_id","type":"uint256","internalType":"uint256"},{"name":"_username","type":"string","internalType":"string"},{"name":"_user_wallet","type":"address","internalType":"address"},{"name":"_min_stake","type":"uint256","internalType":"uint256"}],"outputs":[{"name":"tournament_id","type":"uint256","internalType":"uint256"}],"stateMutability":"payable"},{"type":"function","name":"testReturn","inputs":[],"outputs":[{"name":"curr_tour","type":"uint256","internalType":"uint256"},{"name":"message","type":"string","internalType":"string"},{"name":"owner_addr","type":"address","internalType":"address"}],"stateMutability":"view"},{"type":"function","name":"threshold","inputs":[],"outputs":[{"name":"","type":"uint256","internalType":"uint256"}],"stateMutability":"view"},{"type":"function","name":"tournamentScoresContract","inputs":[],"outputs":[{"name":"","type":"address","internalType":"address"}],"stateMutability":"view"},{"type":"event","name":"StakeGoalReached","inputs":[{"name":"msg1","type":"string","indexed":false,"internalType":"string"},{"name":"id_tournament","type":"uint256","indexed":false,"internalType":"uint256"},{"name":"msg2","type":"string","indexed":false,"internalType":"string"},{"name":"amount_staked","type":"uint256","indexed":false,"internalType":"uint256"}],"anonymous":false},{"type":"event","name":"StakeSuccess","inputs":[{"name":"msg1","type":"string","indexed":false,"internalType":"string"},{"name":"id_tournament","type":"uint256","indexed":false,"internalType":"uint256"},{"name":"msg2","type":"string","indexed":false,"internalType":"string"},{"name":"amount_staked","type":"uint256","indexed":false,"internalType":"uint256"}],"anonymous":false},{"type":"event","name":"reimbursedStakes","inputs":[{"name":"msg","type":"string","indexed":false,"internalType":"string"}],"anonymous":false},{"type":"event","name":"restTransferToOwner","inputs":[{"name":"msg","type":"string","indexed":false,"internalType":"string"}],"anonymous":false},{"type":"event","name":"timeForStakePassed","inputs":[{"name":"msg","type":"string","indexed":false,"internalType":"string"}],"anonymous":false},{"type":"event","name":"tournamentCreated","inputs":[{"name":"msg1","type":"string","indexed":false,"internalType":"string"},{"name":"id_tournament","type":"uint256","indexed":false,"internalType":"uint256"},{"name":"msg2","type":"string","indexed":false,"internalType":"string"},{"name":"amount_staked","type":"uint256","indexed":false,"internalType":"uint256"}],"anonymous":false},{"type":"event","name":"tournamentStarted","inputs":[{"name":"msg","type":"string","indexed":false,"internalType":"string"},{"name":"tour_id","type":"uint256","indexed":false,"internalType":"uint256"}],"anonymous":false},{"type":"error","name":"ReentrancyGuardReentrantCall","inputs":[]},{"type":"error","name":"indexOutOfBounds","inputs":[{"name":"msg","type":"string","internalType":"string"},{"name":"passedIndex","type":"uint256","internalType":"uint256"}]},{"type":"error","name":"insufficientAmount","inputs":[{"name":"msg","type":"string","internalType":"string"},{"name":"amount","type":"uint256","internalType":"uint256"}]},{"type":"error","name":"numberToHigh","inputs":[{"name":"msg","type":"string","internalType":"string"},{"name":"NofPlayers","type":"uint256","internalType":"uint256"}]},{"type":"error","name":"timePassed","inputs":[{"name":"msg","type":"string","internalType":"string"},{"name":"tour_id","type":"uint256","internalType":"uint256"}]},{"type":"error","name":"tournamentAlreadyFinished","inputs":[{"name":"msg","type":"string","internalType":"string"},{"name":"tournament_id","type":"uint256","internalType":"uint256"}]},{"type":"error","name":"tournamentInProgress","inputs":[{"name":"msg","type":"string","internalType":"string"},{"name":"tournament_id","type":"uint256","internalType":"uint256"}]},{"type":"error","name":"wrongUser","inputs":[{"name":"msg","type":"string","internalType":"string"},{"name":"user_id","type":"uint256","internalType":"uint256"}]},{"type":"error","name":"wrongUsersPassed","inputs":[{"name":"msg","type":"string","internalType":"string"},{"name":"user_ids","type":"uint256[8]","internalType":"uint256[8]"}]}],"bytecode":{"object":"0x6080604052620f4240600755348015610016575f80fd5b506040516152af3803806152af83398181016040528101906100389190610184565b60015f819055503360085f6101000a81548173ffffffffffffffffffffffffffffffffffffffff021916908373ffffffffffffffffffffffffffffffffffffffff1602179055508060095f6101000a81548173ffffffffffffffffffffffffffffffffffffffff021916908373ffffffffffffffffffffffffffffffffffffffff16021790555060095f9054906101000a900473ffffffffffffffffffffffffffffffffffffffff16600a5f6101000a81548173ffffffffffffffffffffffffffffffffffffffff021916908373ffffffffffffffffffffffffffffffffffffffff160217905550506101af565b5f80fd5b5f73ffffffffffffffffffffffffffffffffffffffff82169050919050565b5f6101538261012a565b9050919050565b61016381610149565b811461016d575f80fd5b50565b5f8151905061017e8161015a565b92915050565b5f6020828403121561019957610198610126565b5b5f6101a684828501610170565b91505092915050565b6150f3806101bc5f395ff3fe6080604052600436106100f2575f3560e01c80638da5cb5b11610089578063eb26fc3411610058578063eb26fc3414610358578063f19603aa14610388578063fbc0cdf4146103c4578063fc9cb415146103f4576100f2565b80638da5cb5b1461029e578063ad029dd2146102c8578063c50d0774146102f0578063e13a77161461032c576100f2565b806357132e91116100c557806357132e91146101d457806361841cd61461021057806385d1de941461024c5780638c9f84c414610276576100f2565b806305e37c08146100f65780631e110982146101325780632b9b11871461016e57806342cde4e8146101aa575b5f80fd5b348015610101575f80fd5b5061011c60048036038101906101179190613605565b61041c565b604051610129919061364a565b60405180910390f35b34801561013d575f80fd5b5061015860048036038101906101539190613605565b61057f565b604051610165919061364a565b60405180910390f35b348015610179575f80fd5b50610194600480360381019061018f9190613605565b61072a565b6040516101a19190613788565b60405180910390f35b3480156101b5575f80fd5b506101be61089a565b6040516101cb91906137b7565b60405180910390f35b3480156101df575f80fd5b506101fa60048036038101906101f59190613605565b6108a0565b604051610207919061391b565b60405180910390f35b34801561021b575f80fd5b5061023660048036038101906102319190613605565b6109f5565b60405161024391906137b7565b60405180910390f35b348015610257575f80fd5b50610260610ab5565b60405161026d9190613944565b60405180910390f35b348015610281575f80fd5b5061029c6004803603810190610297919061395d565b610ada565b005b3480156102a9575f80fd5b506102b2610e4b565b6040516102bf9190613944565b60405180910390f35b3480156102d3575f80fd5b506102ee60048036038101906102e9919061395d565b610e70565b005b3480156102fb575f80fd5b5061031660048036038101906103119190613605565b6111d5565b604051610323919061364a565b60405180910390f35b348015610337575f80fd5b50610340611383565b60405161034f939291906139e3565b60405180910390f35b610372600480360381019061036d9190613b75565b6113ee565b60405161037f91906137b7565b60405180910390f35b348015610393575f80fd5b506103ae60048036038101906103a99190613605565b6117db565b6040516103bb919061364a565b60405180910390f35b6103de60048036038101906103d99190613c08565b611950565b6040516103eb91906137b7565b60405180910390f35b3480156103ff575f80fd5b5061041a60048036038101906104159190613d3a565b611ef9565b005b5f8160018054905011610476576001808054905061043a9190613dba565b6040517f2b8d4f8700000000000000000000000000000000000000000000000000000000815260040161046d9190613e5d565b60405180910390fd5b5f6001838154811061048b5761048a613e89565b5b905f5260205f2090600d0201604051806101000160405290815f8201548152602001600182016008806020026040519081016040528092919082600880156104e8576020028201915b8154815260200190600101908083116104d4575b5050505050815260200160098201548152602001600a8201548152602001600b82015f9054906101000a900460ff16151515158152602001600b820160019054906101000a900460ff16151515158152602001600b820160029054906101000a900460ff16151515158152602001600c82015481525050905080608001511561057557600191505061057a565b5f9150505b919050565b5f81600180549050116105d9576001808054905061059d9190613dba565b6040517f2b8d4f870000000000000000000000000000000000000000000000000000000081526004016105d09190613e5d565b60405180910390fd5b5f600183815481106105ee576105ed613e89565b5b905f5260205f2090600d0201604051806101000160405290815f82015481526020016001820160088060200260405190810160405280929190826008801561064b576020028201915b815481526020019060010190808311610637575b5050505050815260200160098201548152602001600a8201548152602001600b82015f9054906101000a900460ff16151515158152602001600b820160019054906101000a900460ff16151515158152602001600b820160029054906101000a900460ff16151515158152602001600c8201548152505090505f5b815f015181101561070a575f826020015182600881106106e9576106e8613e89565b5b6020020151036106fd575f92505050610725565b80806001019150506106c6565b815f0151811461071e575f92505050610725565b6001925050505b919050565b610732613450565b5f60025f8481526020019081526020015f205f01540361078957816040517fae88e8c50000000000000000000000000000000000000000000000000000000081526004016107809190613f00565b60405180910390fd5b60025f8381526020019081526020015f206040518060600160405290815f82015481526020016001820180546107be90613f59565b80601f01602080910402602001604051908101604052809291908181526020018280546107ea90613f59565b80156108355780601f1061080c57610100808354040283529160200191610835565b820191905f5260205f20905b81548152906001019060200180831161081857829003601f168201915b50505050508152602001600282015f9054906101000a900473ffffffffffffffffffffffffffffffffffffffff1673ffffffffffffffffffffffffffffffffffffffff1673ffffffffffffffffffffffffffffffffffffffff16815250509050919050565b60075481565b6108a8613485565b816001805490501161090157600180805490506108c59190613dba565b6040517f2b8d4f870000000000000000000000000000000000000000000000000000000081526004016108f89190613e5d565b60405180910390fd5b5f6001838154811061091657610915613e89565b5b905f5260205f2090600d0201604051806101000160405290815f820154815260200160018201600880602002604051908101604052809291908260088015610973576020028201915b81548152602001906001019080831161095f575b5050505050815260200160098201548152602001600a8201548152602001600b82015f9054906101000a900460ff16151515158152602001600b820160019054906101000a900460ff16151515158152602001600b820160029054906101000a900460ff16151515158152602001600c82015481525050905080915050919050565b5f8160018054905011610a4f5760018080549050610a139190613dba565b6040517f2b8d4f87000000000000000000000000000000000000000000000000000000008152600401610a469190613e5d565b60405180910390fd5b5f60018381548110610a6457610a63613e89565b5b905f5260205f2090600d0201600c015442610a7f9190613dba565b90506102588110610a925761e298610aad565b603c81610258610aa29190613dba565b610aac9190613fb6565b5b915050919050565b60095f9054906101000a900473ffffffffffffffffffffffffffffffffffffffff1681565b610ae26126f0565b5f60018381548110610af757610af6613e89565b5b905f5260205f2090600d0201604051806101000160405290815f820154815260200160018201600880602002604051908101604052809291908260088015610b54576020028201915b815481526020019060010190808311610b40575b5050505050815260200160098201548152602001600a8201548152602001600b82015f9054906101000a900460ff16151515158152602001600b820160019054906101000a900460ff16151515158152602001600b820160029054906101000a900460ff16151515158152602001600c8201548152505090505f5b815f0151811015610d59575f60025f8581526020019081526020015f206040518060600160405290815f8201548152602001600182018054610c1090613f59565b80601f0160208091040260200160405190810160405280929190818152602001828054610c3c90613f59565b8015610c875780601f10610c5e57610100808354040283529160200191610c87565b820191905f5260205f20905b815481529060010190602001808311610c6a57829003601f168201915b50505050508152602001600282015f9054906101000a900473ffffffffffffffffffffffffffffffffffffffff1673ffffffffffffffffffffffffffffffffffffffff1673ffffffffffffffffffffffffffffffffffffffff168152505090508383602001518360088110610cff57610cfe613e89565b5b6020020151148015610d4057503373ffffffffffffffffffffffffffffffffffffffff16816040015173ffffffffffffffffffffffffffffffffffffffff16145b15610d4b5750610d59565b508080600101915050610bcf565b5f610d63856109f5565b9050825f01518203610dac57836040517fae88e8c5000000000000000000000000000000000000000000000000000000008152600401610da39190614056565b60405180910390fd5b8260a0015115610df357846040517fd36710bf000000000000000000000000000000000000000000000000000000008152600401610dea91906140f2565b60405180910390fd5b8260800151158015610e0757508260c00151155b8015610e14575061e29881145b15610e3c57610e3b8560405180606001604052806030815260200161505160309139612734565b5b505050610e47612a2c565b5050565b60085f9054906101000a900473ffffffffffffffffffffffffffffffffffffffff1681565b610e786126f0565b5f60018381548110610e8d57610e8c613e89565b5b905f5260205f2090600d0201604051806101000160405290815f820154815260200160018201600880602002604051908101604052809291908260088015610eea576020028201915b815481526020019060010190808311610ed6575b5050505050815260200160098201548152602001600a8201548152602001600b82015f9054906101000a900460ff16151515158152602001600b820160019054906101000a900460ff16151515158152602001600b820160029054906101000a900460ff16151515158152602001600c820154815250509050600115158160a00151151503610fb057826040517fd36710bf000000000000000000000000000000000000000000000000000000008152600401610fa7919061418e565b60405180910390fd5b5f60045f8581526020019081526020015f2090505f805b835f015181101561103c578484602001518260088110610fea57610fe9613e89565b5b60200201510361102f5760025f8681526020019081526020015f206002015f9054906101000a900473ffffffffffffffffffffffffffffffffffffffff16915061103c565b8080600101915050610fc7565b505f73ffffffffffffffffffffffffffffffffffffffff168173ffffffffffffffffffffffffffffffffffffffff1614806110a357503373ffffffffffffffffffffffffffffffffffffffff168173ffffffffffffffffffffffffffffffffffffffff1614155b156110e557836040517fae88e8c50000000000000000000000000000000000000000000000000000000081526004016110dc919061422a565b60405180910390fd5b5f825f8373ffffffffffffffffffffffffffffffffffffffff1673ffffffffffffffffffffffffffffffffffffffff1681526020019081526020015f205490508173ffffffffffffffffffffffffffffffffffffffff166108fc8290811502906040515f60405180830381858888f19350505050158015611168573d5f803e3d5ffd5b5080835f8473ffffffffffffffffffffffffffffffffffffffff1673ffffffffffffffffffffffffffffffffffffffff1681526020019081526020015f205f8282546111b49190613dba565b925050819055506111c58686612a35565b505050506111d1612a2c565b5050565b5f816001805490501161122f57600180805490506111f39190613dba565b6040517f2b8d4f870000000000000000000000000000000000000000000000000000000081526004016112269190613e5d565b60405180910390fd5b6112388261041c565b15611245575f905061137e565b5f6001838154811061125a57611259613e89565b5b905f5260205f2090600d0201604051806101000160405290815f8201548152602001600182016008806020026040519081016040528092919082600880156112b7576020028201915b8154815260200190600101908083116112a3575b5050505050815260200160098201548152602001600a8201548152602001600b82015f9054906101000a900460ff16151515158152602001600b820160019054906101000a900460ff16151515158152602001600b820160029054906101000a900460ff16151515158152602001600c8201548152505090505f6102588260e001516113439190614256565b421115611354575f9250505061137e565b61135d846117db565b1561136757600190505b6113708461057f565b611378575f90505b80925050505b919050565b5f60605f60065460085f9054906101000a900473ffffffffffffffffffffffffffffffffffffffff166040518060400160405280600b81526020017f202077686161617420202000000000000000000000000000000000000000000081525090925092509250909192565b5f6113f76126f0565b600886111561143d57856040517fded37ee100000000000000000000000000000000000000000000000000000000815260040161143491906142d3565b60405180910390fd5b60075434108061144c57508134105b156114a057600754821161146257600754611464565b815b6040517f6b1bb7df000000000000000000000000000000000000000000000000000000008152600401611497919061436f565b60405180910390fd5b6114a8613485565b8281604001818152505086836114be919061439b565b8160600181815250505f8160800190151590811515815250505f8160a00190151590811515815250505f8160c001901515908115158152505086815f018181525050428160e00181815250508581602001515f6008811061152257611521613e89565b5b6020020181815250505f60025f8881526020019081526020015f205f0154036115ef5760405180606001604052808781526020018681526020018573ffffffffffffffffffffffffffffffffffffffff1681525060025f8881526020019081526020015f205f820151815f015560208201518160010190816115a49190614579565b506040820151816002015f6101000a81548173ffffffffffffffffffffffffffffffffffffffff021916908373ffffffffffffffffffffffffffffffffffffffff1602179055509050505b5f6001805490509050600182908060018154018082558091505060019003905f5260205f2090600d02015f909190919091505f820151815f01556020820151816001019060086116409291906134cf565b5060408201518160090155606082015181600a0155608082015181600b015f6101000a81548160ff02191690831515021790555060a082015181600b0160016101000a81548160ff02191690831515021790555060c082015181600b0160026101000a81548160ff02191690831515021790555060e082015181600c0155505060035f3373ffffffffffffffffffffffffffffffffffffffff1673ffffffffffffffffffffffffffffffffffffffff1681526020019081526020015f2081908060018154018082558091505060019003905f5260205f20015f90919091909150553460045f8381526020019081526020015f205f3373ffffffffffffffffffffffffffffffffffffffff1673ffffffffffffffffffffffffffffffffffffffff1681526020019081526020015f20819055506001805490506006819055507f9bbec532241ac022357793e08aef5fdd989c81ee5db7cdb5a3968e34d4be120860016006546117ae9190613dba565b346040516117bd929190614702565b60405180910390a180925050506117d2612a2c565b95945050505050565b5f816001805490501161183557600180805490506117f99190613dba565b6040517f2b8d4f8700000000000000000000000000000000000000000000000000000000815260040161182c9190613e5d565b60405180910390fd5b5f6001838154811061184a57611849613e89565b5b905f5260205f2090600d0201604051806101000160405290815f8201548152602001600182016008806020026040519081016040528092919082600880156118a7576020028201915b815481526020019060010190808311611893575b5050505050815260200160098201548152602001600a8201548152602001600b82015f9054906101000a900460ff16151515158152602001600b820160019054906101000a900460ff16151515158152602001600b820160029054906101000a900460ff16151515158152602001600c820154815250509050806060015160055f8581526020019081526020015f20541061194657600191505061194b565b5f9150505b919050565b5f6119596126f0565b60075434108061198b57506001858154811061197857611977613e89565b5b905f5260205f2090600d02016009015434105b15611a2557600754600186815481106119a7576119a6613e89565b5b905f5260205f2090600d020160090154116119c4576007546119e9565b600185815481106119d8576119d7613e89565b5b905f5260205f2090600d0201600901545b6040517f6b1bb7df000000000000000000000000000000000000000000000000000000008152600401611a1c919061436f565b60405180910390fd5b61e298611a31866109f5565b03611a7357846040517f4e6859a5000000000000000000000000000000000000000000000000000000008152600401611a6a91906147bf565b60405180910390fd5b5f60018681548110611a8857611a87613e89565b5b905f5260205f2090600d020190505f5b815f0154811015611b2a5785826001018260088110611aba57611ab9613e89565b5b015403611afe57856040517fae88e8c5000000000000000000000000000000000000000000000000000000008152600401611af5919061485b565b60405180910390fd5b5f826001018260088110611b1557611b14613e89565b5b01540315611b2a578080600101915050611a98565b815f0154811080611b4a575081600b0160019054906101000a900460ff16155b15611b6c5785826001018260088110611b6657611b65613e89565b5b01819055505b611b75876111d5565b15611bd857600182600b0160016101000a81548160ff0219169083151502179055507fbf6c69596d6835a9095d254e1acf162e98ee9244319e62b146eb310f7fa78e3e87604051611bc691906148f7565b60405180910390a15f92505050611ee9565b5f3460055f8a81526020019081526020015f2054611bf69190614256565b90505f83600a01548211611c0a575f611c1b565b83600a015482611c1a9190613dba565b5b90505f81118015611c2c5750348111155b15611c76573373ffffffffffffffffffffffffffffffffffffffff166108fc8290811502906040515f60405180830381858888f19350505050158015611c74573d5f803e3d5ffd5b505b8034611c829190613dba565b60045f8b81526020019081526020015f205f3373ffffffffffffffffffffffffffffffffffffffff1673ffffffffffffffffffffffffffffffffffffffff1681526020019081526020015f205f828254611cdc9190614256565b925050819055508034611cef9190613dba565b60055f8b81526020019081526020015f205f828254611d0e9190614256565b925050819055505f60025f8a81526020019081526020015f205f015403611dd95760405180606001604052808981526020018881526020018773ffffffffffffffffffffffffffffffffffffffff1681525060025f8a81526020019081526020015f205f820151815f01556020820151816001019081611d8e9190614579565b506040820151816002015f6101000a81548173ffffffffffffffffffffffffffffffffffffffff021916908373ffffffffffffffffffffffffffffffffffffffff1602179055509050505b7f0cb6b39bcb6736e193d8452d5a68d72737edaa43f9ff304753c944a930974e9e8934604051611e0a9291906149b7565b60405180910390a183600a015460055f8b81526020019081526020015f205410611e79577fb43a86c7b209be1e096f09d0da436372d52637d440fdb6159ca46b9555f808fe8960055f8c81526020019081526020015f2054604051611e70929190614abe565b60405180910390a15b835f0154600803611ee457600184600b0160016101000a81548160ff0219169083151502179055507fbf6c69596d6835a9095d254e1acf162e98ee9244319e62b146eb310f7fa78e3e89604051611ed091906148f7565b60405180910390a182945050505050611ee9565b505050505b611ef1612a2c565b949350505050565b611f016126f0565b8060018054905011611f5a5760018080549050611f1e9190613dba565b6040517f2b8d4f87000000000000000000000000000000000000000000000000000000008152600401611f519190613e5d565b60405180910390fd5b5f60018281548110611f6f57611f6e613e89565b5b905f5260205f2090600d0201604051806101000160405290815f820154815260200160018201600880602002604051908101604052809291908260088015611fcc576020028201915b815481526020019060010190808311611fb8575b5050505050815260200160098201548152602001600a8201548152602001600b82015f9054906101000a900460ff16151515158152602001600b820160019054906101000a900460ff16151515158152602001600b820160029054906101000a900460ff16151515158152602001600c8201548152505090505f60035f3373ffffffffffffffffffffffffffffffffffffffff1673ffffffffffffffffffffffffffffffffffffffff1681526020019081526020015f208054806020026020016040519081016040528092919081815260200182805480156120cb57602002820191905f5260205f20905b8154815260200190600101908083116120b7575b505050505090505f8260800151806120e457508260c001515b1561212657836040517fec1b6d2800000000000000000000000000000000000000000000000000000000815260040161211d9190614ba1565b60405180910390fd5b5f5b8251811015612168578483828151811061214557612144613e89565b5b60200260200101510361215b5760019150612168565b8080600101915050612128565b50806121ab57836040517fae88e8c50000000000000000000000000000000000000000000000000000000081526004016121a29190614c3d565b60405180910390fd5b6121b361350f565b5f5b845f015181101561225a575f5b855f015181101561224c578781600881106121e0576121df613e89565b5b6020020151866020015183600881106121fc576121fb613e89565b5b60200201510361223f5788816008811061221957612218613e89565b5b602002015183836008811061223157612230613e89565b5b60200201818152505061224c565b80806001019150506121c2565b5080806001019150506121b5565b50600880146122a45783602001516040517f8767348900000000000000000000000000000000000000000000000000000000815260040161229b9190614d5f565b60405180910390fd5b5f6122b3828660200151612b23565b905060605f5b6001835f600881106122ce576122cd613e89565b5b60200201515060086122e09190613dba565b811015612445575f60025f8960200151846008811061230257612301613e89565b5b602002015181526020019081526020015f206040518060600160405290815f820154815260200160018201805461233890613f59565b80601f016020809104026020016040519081016040528092919081815260200182805461236490613f59565b80156123af5780601f10612386576101008083540402835291602001916123af565b820191905f5260205f20905b81548152906001019060200180831161239257829003601f168201915b50505050508152602001600282015f9054906101000a900473ffffffffffffffffffffffffffffffffffffffff1673ffffffffffffffffffffffffffffffffffffffff1673ffffffffffffffffffffffffffffffffffffffff16815250509050828160200151604051602001612426929190614e10565b60405160208183030381529060405292505080806001019150506122b9565b505f60025f88602001516001600861245d9190613dba565b6008811061246e5761246d613e89565b5b602002015181526020019081526020015f206040518060600160405290815f82015481526020016001820180546124a490613f59565b80601f01602080910402602001604051908101604052809291908181526020018280546124d090613f59565b801561251b5780601f106124f25761010080835404028352916020019161251b565b820191905f5260205f20905b8154815290600101906020018083116124fe57829003601f168201915b50505050508152602001600282015f9054906101000a900473ffffffffffffffffffffffffffffffffffffffff1673ffffffffffffffffffffffffffffffffffffffff1673ffffffffffffffffffffffffffffffffffffffff16815250509050818160200151604051602001612592929190614e3e565b6040516020818303038152906040529150600a5f9054906101000a900473ffffffffffffffffffffffffffffffffffffffff1673ffffffffffffffffffffffffffffffffffffffff16631607fdc6885f0151896020015187875f600881106125fd576125fc613e89565b5b6020020151878e6040518763ffffffff1660e01b815260040161262596959493929190614e61565b5f604051808303815f87803b15801561263c575f80fd5b505af115801561264e573d5f803e3d5ffd5b5050505061265c8884612e00565b3373ffffffffffffffffffffffffffffffffffffffff166108fc606489606001516126879190613fb6565b90811502906040515f60405180830381858888f193505050501580156126af573d5f803e3d5ffd5b506126d2886040518060600160405280603d8152602001615081603d9139612734565b6126dc88886131e4565b505050505050506126eb612a2c565b505050565b60025f540361272b576040517f3ee5aeb500000000000000000000000000000000000000000000000000000000815260040160405180910390fd5b60025f81905550565b5f6001838154811061274957612748613e89565b5b905f5260205f2090600d020190505f60045f8581526020019081526020015f2090505f5b825f01548167ffffffffffffffff16101561299f575f60025f856001018467ffffffffffffffff16600881106127a6576127a5613e89565b5b015481526020019081526020015f206040518060600160405290815f82015481526020016001820180546127d990613f59565b80601f016020809104026020016040519081016040528092919081815260200182805461280590613f59565b80156128505780601f1061282757610100808354040283529160200191612850565b820191905f5260205f20905b81548152906001019060200180831161283357829003601f168201915b50505050508152602001600282015f9054906101000a900473ffffffffffffffffffffffffffffffffffffffff1673ffffffffffffffffffffffffffffffffffffffff1673ffffffffffffffffffffffffffffffffffffffff168152505090505f835f836040015173ffffffffffffffffffffffffffffffffffffffff1673ffffffffffffffffffffffffffffffffffffffff1681526020019081526020015f205490505f81111561298a57816040015173ffffffffffffffffffffffffffffffffffffffff166108fc8290811502906040515f60405180830381858888f19350505050158015612943573d5f803e3d5ffd5b505f845f846040015173ffffffffffffffffffffffffffffffffffffffff1673ffffffffffffffffffffffffffffffffffffffff1681526020019081526020015f20819055505b5050808061299790614edf565b91505061276d565b50600182600b0160026101000a81548160ff021916908315150217905550600182600b015f6101000a81548160ff0219169083151502179055505f60055f8681526020019081526020015f20819055507f607ad2b7406546630262ee5bda4f5861d37528c058ce0d83cc7009e34305dd7883604051612a1e9190614f0e565b60405180910390a150505050565b60015f81905550565b5f60018381548110612a4a57612a49613e89565b5b905f5260205f2090600d020190505f5b815f0154811015612b1d5782826001018260088110612a7c57612a7b613e89565b5b015403612af1575f600182612a919190614256565b90505b825f0154811015612aeb57826001018160088110612ab557612ab4613e89565b5b015483600101600183612ac89190613dba565b60088110612ad957612ad8613e89565b5b01819055508080600101915050612a94565b50612b1d565b5f826001018260088110612b0857612b07613e89565b5b01540315612b1d578080600101915050612a5a565b50505050565b612b2b613532565b612b33613560565b5f5b60088167ffffffffffffffff161015612bd7576040518060400160405280868367ffffffffffffffff1660088110612b7057612b6f613e89565b5b60200201518152602001858367ffffffffffffffff1660088110612b9757612b96613e89565b5b6020020151815250828267ffffffffffffffff1660088110612bbc57612bbb613e89565b5b60200201819052508080612bcf90614edf565b915050612b35565b505f5b6008811015612cbc575f828260088110612bf757612bf6613e89565b5b602002015190505f8290505b5f81118015612c3a5750815f015184600183612c1f9190613dba565b60088110612c3057612c2f613e89565b5b60200201515f0151105b15612c915783600182612c4d9190613dba565b60088110612c5e57612c5d613e89565b5b6020020151848260088110612c7657612c75613e89565b5b60200201819052508080612c8990614f2e565b915050612c03565b81848260088110612ca557612ca4613e89565b5b602002018190525050508080600101915050612bda565b505f805f5b6008811015612df6575f811480612d17575083600182612ce19190613dba565b60088110612cf257612cf1613e89565b5b60200201515f0151848260088110612d0d57612d0c613e89565b5b60200201515f0151145b15612d7c57838160088110612d2f57612d2e613e89565b5b602002015160200151858460088110612d4b57612d4a613e89565b5b60200201518380612d5b90614f55565b945060088110612d6e57612d6d613e89565b5b602002018181525050612de9565b5f91508280612d8a90614f55565b935050838160088110612da057612d9f613e89565b5b602002015160200151858460088110612dbc57612dbb613e89565b5b60200201518380612dcc90614f55565b945060088110612ddf57612dde613e89565b5b6020020181815250505b8080600101915050612cc1565b5050505092915050565b5f60018381548110612e1557612e14613e89565b5b905f5260205f2090600d0201604051806101000160405290815f820154815260200160018201600880602002604051908101604052809291908260088015612e72576020028201915b815481526020019060010190808311612e5e575b5050505050815260200160098201548152602001600a8201548152602001600b82015f9054906101000a900460ff16151515158152602001600b820160019054906101000a900460ff16151515158152602001600b820160029054906101000a900460ff16151515158152602001600c8201548152505090505f60045f8581526020019081526020015f2090505f600a60098460600151612f13919061439b565b612f1d9190613fb6565b90505f600467ffffffffffffffff811115612f3b57612f3a613a27565b5b604051908082528060200260200182016040528015612f695781602001602082028036833780820191505090505b5090506032815f81518110612f8157612f80613e89565b5b602002602001018181525050601e81600181518110612fa357612fa2613e89565b5b602002602001018181525050600f81600281518110612fc557612fc4613e89565b5b602002602001018181525050600581600381518110612fe757612fe6613e89565b5b6020026020010181815250505f805f805f805b60088110156131d6575f5b8b826008811061301857613017613e89565b5b60200201515060088110156130b6575f8c836008811061303b5761303a613e89565b5b6020020151826008811061305257613051613e89565b5b602002015103156130b657875187101561309b5787878061307290614f55565b98508151811061308557613084613e89565b5b6020026020010151866130989190614256565b95505b82806130a690614f55565b9350508080600101915050613005565b505f851180156130c557505f82115b6130cf575f6130dc565b81856130db9190613fb6565b5b93505f5b828110156131b6578b82600881106130fb576130fa613e89565b5b6020020151816008811061311257613111613e89565b5b602002015193505f60025f8681526020019081526020015f2090506064868b61313b919061439b565b6131459190613fb6565b8b5f836002015f9054906101000a900473ffffffffffffffffffffffffffffffffffffffff1673ffffffffffffffffffffffffffffffffffffffff1673ffffffffffffffffffffffffffffffffffffffff1681526020019081526020015f20819055505080806001019150506130e0565b505f94505f93505f915086518610156131d6578080600101915050612ffa565b505050505050505050505050565b5f60045f8481526020019081526020015f2090505f826020015190505f606460098560600151613214919061439b565b61321e9190613fb6565b905060085f9054906101000a900473ffffffffffffffffffffffffffffffffffffffff1673ffffffffffffffffffffffffffffffffffffffff166108fc8290811502906040515f60405180830381858888f19350505050158015613284573d5f803e3d5ffd5b505f5b6008811015613413575f60025f8584600881106132a7576132a6613e89565b5b602002015181526020019081526020015f206002015f9054906101000a900473ffffffffffffffffffffffffffffffffffffffff1690505f855f8373ffffffffffffffffffffffffffffffffffffffff1673ffffffffffffffffffffffffffffffffffffffff1681526020019081526020015f205411156133c45760085f9054906101000a900473ffffffffffffffffffffffffffffffffffffffff1673ffffffffffffffffffffffffffffffffffffffff166108fc865f8473ffffffffffffffffffffffffffffffffffffffff1673ffffffffffffffffffffffffffffffffffffffff1681526020019081526020015f205490811502906040515f60405180830381858888f193505050501580156133c2573d5f803e3d5ffd5b505b5f855f8373ffffffffffffffffffffffffffffffffffffffff1673ffffffffffffffffffffffffffffffffffffffff1681526020019081526020015f2081905550508080600101915050613287565b507f6a1142d26f72a549543f9914943f970fc368933d03c94ec5003df1f44e466ec560405161344190615032565b60405180910390a15050505050565b60405180606001604052805f8152602001606081526020015f73ffffffffffffffffffffffffffffffffffffffff1681525090565b6040518061010001604052805f815260200161349f61350f565b81526020015f81526020015f81526020015f151581526020015f151581526020015f151581526020015f81525090565b82600881019282156134fe579160200282015b828111156134fd5782518255916020019190600101906134e2565b5b50905061350b919061358e565b5090565b604051806101000160405280600890602082028036833780820191505090505090565b6040518061010001604052806008905b61354a61350f565b8152602001906001900390816135425790505090565b6040518061010001604052806008905b6135786135a9565b8152602001906001900390816135705790505090565b5b808211156135a5575f815f90555060010161358f565b5090565b60405180604001604052805f81526020015f81525090565b5f604051905090565b5f80fd5b5f80fd5b5f819050919050565b6135e4816135d2565b81146135ee575f80fd5b50565b5f813590506135ff816135db565b92915050565b5f6020828403121561361a576136196135ca565b5b5f613627848285016135f1565b91505092915050565b5f8115159050919050565b61364481613630565b82525050565b5f60208201905061365d5f83018461363b565b92915050565b61366c816135d2565b82525050565b5f81519050919050565b5f82825260208201905092915050565b5f5b838110156136a957808201518184015260208101905061368e565b5f8484015250505050565b5f601f19601f8301169050919050565b5f6136ce82613672565b6136d8818561367c565b93506136e881856020860161368c565b6136f1816136b4565b840191505092915050565b5f73ffffffffffffffffffffffffffffffffffffffff82169050919050565b5f613725826136fc565b9050919050565b6137358161371b565b82525050565b5f606083015f8301516137505f860182613663565b506020830151848203602086015261376882826136c4565b915050604083015161377d604086018261372c565b508091505092915050565b5f6020820190508181035f8301526137a0818461373b565b905092915050565b6137b1816135d2565b82525050565b5f6020820190506137ca5f8301846137a8565b92915050565b5f60089050919050565b5f81905092915050565b5f819050919050565b5f6137f88383613663565b60208301905092915050565b5f602082019050919050565b613819816137d0565b61382381846137da565b925061382e826137e4565b805f5b8381101561385e57815161384587826137ed565b965061385083613804565b925050600181019050613831565b505050505050565b61386f81613630565b82525050565b6101e082015f82015161388a5f850182613663565b50602082015161389d6020850182613810565b5060408201516138b1610120850182613663565b5060608201516138c5610140850182613663565b5060808201516138d9610160850182613866565b5060a08201516138ed610180850182613866565b5060c08201516139016101a0850182613866565b5060e08201516139156101c0850182613663565b50505050565b5f6101e08201905061392f5f830184613875565b92915050565b61393e8161371b565b82525050565b5f6020820190506139575f830184613935565b92915050565b5f8060408385031215613973576139726135ca565b5b5f613980858286016135f1565b9250506020613991858286016135f1565b9150509250929050565b5f82825260208201905092915050565b5f6139b582613672565b6139bf818561399b565b93506139cf81856020860161368c565b6139d8816136b4565b840191505092915050565b5f6060820190506139f65f8301866137a8565b8181036020830152613a0881856139ab565b9050613a176040830184613935565b949350505050565b5f80fd5b5f80fd5b7f4e487b71000000000000000000000000000000000000000000000000000000005f52604160045260245ffd5b613a5d826136b4565b810181811067ffffffffffffffff82111715613a7c57613a7b613a27565b5b80604052505050565b5f613a8e6135c1565b9050613a9a8282613a54565b919050565b5f67ffffffffffffffff821115613ab957613ab8613a27565b5b613ac2826136b4565b9050602081019050919050565b828183375f83830152505050565b5f613aef613aea84613a9f565b613a85565b905082815260208101848484011115613b0b57613b0a613a23565b5b613b16848285613acf565b509392505050565b5f82601f830112613b3257613b31613a1f565b5b8135613b42848260208601613add565b91505092915050565b613b548161371b565b8114613b5e575f80fd5b50565b5f81359050613b6f81613b4b565b92915050565b5f805f805f60a08688031215613b8e57613b8d6135ca565b5b5f613b9b888289016135f1565b9550506020613bac888289016135f1565b945050604086013567ffffffffffffffff811115613bcd57613bcc6135ce565b5b613bd988828901613b1e565b9350506060613bea88828901613b61565b9250506080613bfb888289016135f1565b9150509295509295909350565b5f805f8060808587031215613c2057613c1f6135ca565b5b5f613c2d878288016135f1565b9450506020613c3e878288016135f1565b935050604085013567ffffffffffffffff811115613c5f57613c5e6135ce565b5b613c6b87828801613b1e565b9250506060613c7c87828801613b61565b91505092959194509250565b5f67ffffffffffffffff821115613ca257613ca1613a27565b5b602082029050919050565b5f80fd5b5f613cc3613cbe84613c88565b613a85565b90508060208402830185811115613cdd57613cdc613cad565b5b835b81811015613d065780613cf288826135f1565b845260208401935050602081019050613cdf565b5050509392505050565b5f82601f830112613d2457613d23613a1f565b5b6008613d31848285613cb1565b91505092915050565b5f805f6102208486031215613d5257613d516135ca565b5b5f613d5f86828701613d10565b935050610100613d7186828701613d10565b925050610200613d83868287016135f1565b9150509250925092565b7f4e487b71000000000000000000000000000000000000000000000000000000005f52601160045260245ffd5b5f613dc4826135d2565b9150613dcf836135d2565b9250828203905081811115613de757613de6613d8d565b5b92915050565b7f546f75726e616d656e745f696420697320746f20686967682c206d61782069645f8201527f2069733a20000000000000000000000000000000000000000000000000000000602082015250565b5f613e4760258361399b565b9150613e5282613ded565b604082019050919050565b5f6040820190508181035f830152613e7481613e3b565b9050613e8360208301846137a8565b92915050565b7f4e487b71000000000000000000000000000000000000000000000000000000005f52603260045260245ffd5b7f7573657220646f65736e277420657869737400000000000000000000000000005f82015250565b5f613eea60128361399b565b9150613ef582613eb6565b602082019050919050565b5f6040820190508181035f830152613f1781613ede565b9050613f2660208301846137a8565b92915050565b7f4e487b71000000000000000000000000000000000000000000000000000000005f52602260045260245ffd5b5f6002820490506001821680613f7057607f821691505b602082108103613f8357613f82613f2c565b5b50919050565b7f4e487b71000000000000000000000000000000000000000000000000000000005f52601260045260245ffd5b5f613fc0826135d2565b9150613fcb836135d2565b925082613fdb57613fda613f89565b5b828204905092915050565b7f757365722063616e2774206578656375746520746869732070726f636573732c5f8201527f20757365722069643a2000000000000000000000000000000000000000000000602082015250565b5f614040602a8361399b565b915061404b82613fe6565b604082019050919050565b5f6040820190508181035f83015261406d81614034565b905061407c60208301846137a8565b92915050565b7f746f75726e616d656e7420697320616c726561647920696e2070726f677265735f8201527f732c2069643a2000000000000000000000000000000000000000000000000000602082015250565b5f6140dc60278361399b565b91506140e782614082565b604082019050919050565b5f6040820190508181035f830152614109816140d0565b905061411860208301846137a8565b92915050565b7f63616e27742065786563757465206265636175736520746f75726e616d656e745f8201527f20616c726561647920737461727465642c2069643a2000000000000000000000602082015250565b5f61417860368361399b565b91506141838261411e565b604082019050919050565b5f6040820190508181035f8301526141a58161416c565b90506141b460208301846137a8565b92915050565b7f746869732075736572206973206e6f7420612070617274206f662074686520745f8201527f6f75726e616d656e743a20000000000000000000000000000000000000000000602082015250565b5f614214602b8361399b565b915061421f826141ba565b604082019050919050565b5f6040820190508181035f83015261424181614208565b905061425060208301846137a8565b92915050565b5f614260826135d2565b915061426b836135d2565b925082820190508082111561428357614282613d8d565b5b92915050565b7f546f6f206d616e7920706c6179657273000000000000000000000000000000005f82015250565b5f6142bd60108361399b565b91506142c882614289565b602082019050919050565b5f6040820190508181035f8301526142ea816142b1565b90506142f960208301846137a8565b92915050565b7f696e73756666696369656e742066756e647320616c6c6f63617465642c206d695f8201527f6e3a200000000000000000000000000000000000000000000000000000000000602082015250565b5f61435960238361399b565b9150614364826142ff565b604082019050919050565b5f6040820190508181035f8301526143868161434d565b905061439560208301846137a8565b92915050565b5f6143a5826135d2565b91506143b0836135d2565b92508282026143be816135d2565b915082820484148315176143d5576143d4613d8d565b5b5092915050565b5f819050815f5260205f209050919050565b5f6020601f8301049050919050565b5f82821b905092915050565b5f600883026144387fffffffffffffffffffffffffffffffffffffffffffffffffffffffffffffffff826143fd565b61444286836143fd565b95508019841693508086168417925050509392505050565b5f819050919050565b5f61447d614478614473846135d2565b61445a565b6135d2565b9050919050565b5f819050919050565b61449683614463565b6144aa6144a282614484565b848454614409565b825550505050565b5f90565b6144be6144b2565b6144c981848461448d565b505050565b5b818110156144ec576144e15f826144b6565b6001810190506144cf565b5050565b601f82111561453157614502816143dc565b61450b846143ee565b8101602085101561451a578190505b61452e614526856143ee565b8301826144ce565b50505b505050565b5f82821c905092915050565b5f6145515f1984600802614536565b1980831691505092915050565b5f6145698383614542565b9150826002028217905092915050565b61458282613672565b67ffffffffffffffff81111561459b5761459a613a27565b5b6145a58254613f59565b6145b08282856144f0565b5f60209050601f8311600181146145e1575f84156145cf578287015190505b6145d9858261455e565b865550614640565b601f1984166145ef866143dc565b5f5b82811015614616578489015182556001820191506020850194506020810190506145f1565b86831015614633578489015161462f601f891682614542565b8355505b6001600288020188555050505b505050505050565b7f596f752068617665207375636365737366756c6c79206372656174656420746f5f8201527f75726e616d656e7420776974682069643a200000000000000000000000000000602082015250565b5f6146a260328361399b565b91506146ad82614648565b604082019050919050565b7f20616e64207374616b656420616e20616d6f756e74206f663a200000000000005f82015250565b5f6146ec601a8361399b565b91506146f7826146b8565b602082019050919050565b5f6080820190508181035f83015261471981614696565b905061472860208301856137a8565b8181036040830152614739816146e0565b905061474860608301846137a8565b9392505050565b7f74696d6520746f6f207374616b65206861732070617373656420666f7220746f5f8201527f75726e616d656e743a2000000000000000000000000000000000000000000000602082015250565b5f6147a9602a8361399b565b91506147b48261474f565b604082019050919050565b5f6040820190508181035f8301526147d68161479d565b90506147e560208301846137a8565b92915050565b7f74686973207573657220697320616c72656164792072656769737465726564205f8201527f696e207468697320746f75726e616d656e740000000000000000000000000000602082015250565b5f61484560328361399b565b9150614850826147eb565b604082019050919050565b5f6040820190508181035f83015261487281614839565b905061488160208301846137a8565b92915050565b7f746f75726e616d656e742068617320656e6f75676820706c617965727320616e5f8201527f642063616e2073746172742c2069643a20000000000000000000000000000000602082015250565b5f6148e160318361399b565b91506148ec82614887565b604082019050919050565b5f6040820190508181035f83015261490e816148d5565b905061491d60208301846137a8565b92915050565b7f20796f752068617665207374616b656420746f20746f75726e616d656e743a205f82015250565b5f61495760208361399b565b915061496282614923565b602082019050919050565b7f20616d6f756e74206f663a2000000000000000000000000000000000000000005f82015250565b5f6149a1600c8361399b565b91506149ac8261496d565b602082019050919050565b5f6080820190508181035f8301526149ce8161494b565b90506149dd60208301856137a8565b81810360408301526149ee81614995565b90506149fd60608301846137a8565b9392505050565b7f2074686520746f75726e616d656e7420776974682069643a20000000000000005f82015250565b5f614a3860198361399b565b9150614a4382614a04565b602082019050919050565b7f20686173207265616368656420746865207374616b6520616d6f756e7420616e5f8201527f6420697320726561647920746f20626567696e2c20616d6f756e743a20000000602082015250565b5f614aa8603d8361399b565b9150614ab382614a4e565b604082019050919050565b5f6080820190508181035f830152614ad581614a2c565b9050614ae460208301856137a8565b8181036040830152614af581614a9c565b9050614b0460608301846137a8565b9392505050565b7f546f75726e616d656e74206973207374696c6c20696e2070726f6772657373205f8201527f6f722077617320616c7265616479207265696d6275727365642c20746f75726e60208201527f616d656e742069643a2000000000000000000000000000000000000000000000604082015250565b5f614b8b604a8361399b565b9150614b9682614b0b565b606082019050919050565b5f6040820190508181035f830152614bb881614b7f565b9050614bc760208301846137a8565b92915050565b7f53656e646572206973206e6f7420746865206f776e6572206f662074686520745f8201527f6f75726e616d656e743a20000000000000000000000000000000000000000000602082015250565b5f614c27602b8361399b565b9150614c3282614bcd565b604082019050919050565b5f6040820190508181035f830152614c5481614c1b565b9050614c6360208301846137a8565b92915050565b7f746865207573657273207061737365642c20617265206e6f74207468652073615f8201527f6d65206173207361766564206f6e20636861696e2e20757365725f696473206f60208201527f6e20636861696e3a200000000000000000000000000000000000000000000000604082015250565b5f614ce960498361399b565b9150614cf482614c69565b606082019050919050565b5f81905092915050565b614d12816137d0565b614d1c8184614cff565b9250614d27826137e4565b805f5b83811015614d57578151614d3e87826137ed565b9650614d4983613804565b925050600181019050614d2a565b505050505050565b5f610120820190508181035f830152614d7781614cdd565b9050614d866020830184614d09565b92915050565b5f81905092915050565b5f614da082613672565b614daa8185614d8c565b9350614dba81856020860161368c565b80840191505092915050565b7f3b000000000000000000000000000000000000000000000000000000000000005f82015250565b5f614dfa600183614d8c565b9150614e0582614dc6565b600182019050919050565b5f614e1b8285614d96565b9150614e278284614d96565b9150614e3282614dee565b91508190509392505050565b5f614e498285614d96565b9150614e558284614d96565b91508190509392505050565b5f61036082019050614e755f8301896137a8565b614e826020830188614d09565b614e90610120830187614d09565b614e9e610220830186614d09565b818103610320830152614eb181856139ab565b9050614ec16103408301846137a8565b979650505050505050565b5f67ffffffffffffffff82169050919050565b5f614ee982614ecc565b915067ffffffffffffffff8203614f0357614f02613d8d565b5b600182019050919050565b5f6020820190508181035f830152614f2681846139ab565b905092915050565b5f614f38826135d2565b91505f8203614f4a57614f49613d8d565b5b600182039050919050565b5f614f5f826135d2565b91507fffffffffffffffffffffffffffffffffffffffffffffffffffffffffffffffff8203614f9157614f90613d8d565b5b600182019050919050565b7f7468652072657374206f662074686520746f75726e616d656e74207374616b655f8201527f20686173206265656e207472616e7366657272656420746f20636f6e7472616360208201527f74206f776e657200000000000000000000000000000000000000000000000000604082015250565b5f61501c60478361399b565b915061502782614f9c565b606082019050919050565b5f6020820190508181035f83015261504981615010565b905091905056fe746f75726e616d656e7420636f756c6427742073746172742c207265696d62757273696e6720616c6c207374616b6573546f75726e616d656e742066696e69736865642c20616c6c20706c617965727320686176652072656365697665642074686569722077696e6e696e6773a2646970667358221220de6918647d0a6e7d2d80a697f9bb069708cbf5bb738c184ad83aed78bbd24a6d64736f6c63430008190033","linkReferences":{}},"methodIdentifiers":{"checkTime(uint256)":"61841cd6","checkTournamentStatus(uint256)":"c50d0774","getPayableTournamentData(uint256)":"57132e91","getUserbyId(uint256)":"2b9b1187","hasAllPlayers(uint256)":"1e110982","isGoalReached(uint256)":"f19603aa","isTournamentFinished(uint256)":"05e37c08","owner()":"8da5cb5b","reimburseIfFailedStart(uint256,uint256)":"8c9f84c4","reimbursePlayer(uint256,uint256)":"ad029dd2","saveResultsAndTransferToken(uint256[8],uint256[8],uint256)":"fc9cb415","stake(uint256,uint256,string,address)":"fbc0cdf4","startPayableTournament(uint256,uint256,string,address,uint256)":"eb26fc34","testReturn()":"e13a7716","threshold()":"42cde4e8","tournamentScoresContract()":"85d1de94"},"id":1}